:020000040800F2
:10000000884B0020B9180008C118000865020008D4
:10001000690200086D02000871020008000000007B
:10002000000000000000000000000000890100083E
:10003000CD18000800000000CD010008950C000854
:10004000D3180008D3180008D3180008D3180008E4
:10005000D3180008D3180008D3180008D3180008D4
:10006000D3180008D3180008D3180008D3180008C4
:10007000D3180008D3180008D3180008D3180008B4
:10008000D3180008D3180008D3180008D3180008A4
:10009000D3180008D3180008D3180008D318000894
:1000A000D3180008D3180008D3180008D318000884
:1000B000D3180008D3180008D3180008D318000874
:1000C000D3180008D3180008D3180008D318000864
:1000D000D3180008D3180008D3180008D318000854
:1000E000D3180008D3180008D318000800F002F84D
:1000F00000F03AF80AA090E8000C82448344AAF188
:100100000107DA4501D100F02FF8AFF2090EBAE885
:100110000F0013F0010F18BFFB1A43F0010318473B
:10012000F418000014190000103A24BF78C878C1F0
:10013000FAD8520724BF30C830C144BF04680C60ED
:10014000704700000023002400250026103A28BF35
:1001500078C1FBD8520728BF30C148BF0B60704739
:100160001FB51FBD10B510BD01F01AFC1146FFF7F9
:10017000F7FF00F05BF801F038FC03B4FFF7F2FF83
:1001800003BC01F03FFC0000204B19680868B0E890
:10019000F00F80F30988BFF36F8F4FF0000080F3FA
:1001A00011884EF00D0E70470000000006480068F0
:1001B000006880F3088862B661B6BFF34F8FBFF363
:1001C0006F8F00DF00BF00BF08ED00E0EFF3098094
:1001D000BFF36F8F0D4B1A6820E9F00F106008B560
:1001E0004FF0500080F3118801F02EF94FF000001D
:1001F00080F31188BDE8084019680868B0E8F00F7E
:1002000080F30988BFF36F8F704700BF3C00002068
:10021000EFF311804FF0500181F31188704780F3A4
:1002200011887047EFF30580704700001FB500206C
:100230000123CDE90030029003464FF47A7205A104
:100240000390074800F0A6FD01F041F8002004B03B
:1002500010BD00004C4544315F5461736B000000D9
:100260007509000800BFFEE700BFFEE700BFFEE71C
:1002700000BFFEE710B50446CC48844208D10121F6
:10028000042000F02DFB0021042000F029FB46E0B3
:10029000C748844208D10121082000F021FB002139
:1002A000082000F01DFB3AE0C248844208D1012139
:1002B000102000F015FB0021102000F011FB2EE0B3
:1002C000BD48844208D10121202000F009FB002113
:1002D000202000F005FB22E0B848844208D101212B
:1002E000402000F0FDFA0021402000F0F9FA16E06D
:1002F000B348844208D10121802000F0F1FA0021A6
:10030000802000F0EDFA0AE0AE48844207D10121D6
:10031000801500F0E5FA0021A01500F0E1FA10BD0B
:1003200010B50121084600F0DBFA0021012000F0A1
:10033000D7FA10BD2DE9F041024600250026002025
:1003400000230024002791F803C00CF00F0591F85A
:1003500003C00CF0100CBCF1000F03D091F802C0E8
:100360004CEA050591F800C0BCF1000F31D01468CB
:1003700000202BE04FF0010C0CFA00F3B1F800C0A4
:100380000CEA03069E4220D183004FF00F0C0CFABA
:1003900003F7BC4305FA03FC4CEA040491F803C0DC
:1003A000BCF1280F06D14FF0010C0CFA00FCC2F88A
:1003B00014C00AE091F803C0BCF1480F05D14FF01A
:1003C000010C0CFA00FCC2F810C0401C0828D1D364
:1003D0001460B1F800C0BCF1FF0F34DD5468002098
:1003E0002EE000F1080C4FF0010808FA0CF3B1F808
:1003F00000C00CEA03069E4221D183004FF00F0C8F
:100400000CFA03F7BC4305FA03FC4CEA040491F828
:1004100003C0BCF1280F05D100F1080C08FA0CF854
:10042000C2F8148091F803C0BCF1480F07D100F165
:10043000080C4FF0010808FA0CF8C2F81080401CB4
:100440000828CED35460BDE8F0814FF6FF710180DB
:10045000022181700421C170704702460020936818
:100460000B400BB1012000E0002070470146886876
:1004700080B2704702460020D3680B400BB10120C8
:1004800000E0002070470146C86880B270470161F3
:100490007047416170470AB1016100E041617047F6
:1004A000C16070474FF480320A438261816182618A
:1004B00082698269704702460020434B18684FF6F4
:1004C0008073184040EA021008433F4B18607047A1
:1004D0003E49C8617047F0B50A4600230024002158
:1004E000002500F00046B6F1004F02D1364EF1690A
:1004F00001E0354E7168C0F3034583B200F4401645
:10050000B6F5401F08D121F070612F4E766826F0B5
:1005100070662D4F7E6012E000F48016B6F5801FE5
:1005200006D1032606FA05F4A14341F0706106E006
:10053000460D360103FA06F6B14341F0706122B16F
:10054000460D360103FA06F6314300F00046B6F1D7
:10055000004F02D11C4EF16101E01B4E7160F0BDF5
:1005600030B500228B071C0F0F2303FA04F2164B41
:1005700008338C1053F824309343134C08348D10F7
:1005800044F8253023468C1053F824308C07240F70
:1005900000FA04F423430C4C08348D1044F8253041
:1005A00030BD0A49DC310860704700000008014096
:1005B000000C0140001001400014014000180140EF
:1005C000001C0140002001400000014000002042CA
:1005D000DF48006840F00100DD49086008464068D7
:1005E000DC490840DA49486008460068DA490840B2
:1005F000D74908600846006820F480200860084653
:10060000406820F4FE0048604FF41F008860704787
:10061000CF49096821F48031CD4A1160114609683B
:1006200021F480211160B0F5803F03D0B0F5802F18
:100630000ED106E0C649096841F48031C44A116010
:1006400007E0C349096841F4A021C14A116000E0F4
:1006500000BF00BF704710B50146002200230020F4
:100660004A11012A02D1BA4C236806E0022A02D1BB
:10067000B74C236A01E0B64C636A01F01F02012403
:1006800094401C400CB1012000E0002010BD38B5A2
:10069000002000900024002500BF3120FFF7DBFF81
:1006A00005460098401C00900098B0F5A06F01D05E
:1006B000002DF2D03120FFF7CEFF08B1012400E079
:1006C0000024204638BD01460020A14A106820F0D1
:1006D000F80040EAC10010607047A0490860704708
:1006E000024600209A4B586820F47C1042EA01032D
:1006F0001843974B58607047984908667047014601
:100700000020934A506820F003000843506070476F
:100710008F48406800F00C007047014600208C4A6A
:10072000506820F0F00008435060704701460020F8
:10073000874A506820F4E0600843506070470146E3
:100740000020834A506820F4605040EAC1005060A5
:10075000704729B17E4A527A02437D4B5A7204E0B7
:100760007B4A527A82437A4B5A7270477B49D8311E
:100770000860704701460020754A506820F44040E8
:100780000843506070470021714A20321170704A4E
:1007900082F82010012802D004280AD104E00121A7
:1007A0006B4A2032117005E00521694A2032117030
:1007B00000E000BF00BF70476949086070476449A6
:1007C000096A0143624A1162704765494439086009
:1007D000704730B500210022002400235C4D6D6875
:1007E00005F00C0121B1042905D0082923D105E029
:1007F0005C4D056022E05B4D05601FE0544D6D6867
:1008000005F47012524D6D6805F48034022505EB35
:1008100092421CB9544D554305600BE04C4D6D6838
:1008200005F400351DB1504D5543056002E04D4DB6
:100830005543056002E04B4D056000BF00BF444DCD
:100840006D6805F0F0010909484D6B5C0568DD40F5
:1008500045603F4D6D6805F4E061090A434D6B5CEE
:100860004568DD4085603A4D6D6805F46051C90A00
:100870003E4D6B5C4568DD40C560354D6D6805F4E7
:100880004041890B3A4D6B5CC568B5FBF3F50561DA
:1008900030BD29B12E4A526902432D4B5A6104E002
:1008A0002B4A526982432A4B5A61704729B1284A20
:1008B00092690243264B9A6104E0254A9269824379
:1008C000234B9A61704729B1214AD2690243204BD8
:1008D000DA6104E01E4AD26982431D4BDA61704737
:1008E00029B11B4AD2680243194BDA6004E0184A66
:1008F000D2688243164BDA60704729B1144A1269F4
:100900000243134B1A6104E0114A12698243104BEF
:100910001A61704712494039086070470F49C8642E
:1009200070470B49C87170470948406A40F08070B1
:1009300007494862704701460020054A92680A400C
:100940000AB1012000E00020704701498872704719
:10095000001002400000FFF8FFFFF6FE00004242D8
:100960008004424200127A0000093D00000000208D
:100970001000002008B501211120FFF797FF4FF468
:100980000050ADF8000002208DF8020010208DF814
:10099000030069461F48FFF7CDFC02201E4908707E
:1009A000032048700846807820F00100401C8870C1
:1009B0000846807820F060006030887008468078B3
:1009C00020F00800083088700846C07820F0080041
:1009D0000830C87000BF11480068401C0F4908600B
:1009E0000F48006880F001000E49C1F8B4014FF4CF
:1009F000FA7000F0B5FB0B48D0F8B40180F00100AC
:100A00000849C1F8B4014FF47A71074800F046FB79
:100A1000E1E7000000100140180000201400002051
:100A2000B4012242000022421C000020434A22F06E
:100A30000700434A10600022414B5A6044F2F832EA
:100A4000404B5A6000221A60014644F2F8324A6074
:100A50001A460A6070472DE9F04104464FF000083D
:100A600000F016FB3848006820B9FFF7DFFF0120CF
:100A70003549086044B1083404F0070020B104F09F
:100A80000700C0F108000444002C32D044F2F830D2
:100A900084422ED22A4F3846056801E02F462D6841
:100AA0006868A04202D228680028F7D1254885420C
:100AB0001FD0386800F10808286838606868001B93
:100AC000102810D92E196868001B70606C6071685E
:100AD0001B4800E00068026852688A42FAD3026844
:100AE0003260066000BF194968680968081A17492A
:100AF000086000F051FA4046BDE8F08170B5064646
:100B00003546B6B1083D2C4600F0C2FA61680C4883
:100B100000E00068026852688A42FAD302682260E4
:100B200004600A496068096808440849086000F0E0
:100B300033FA70BD05480068704770478C0000208C
:100B40002000002028000020340000203000002079
:100B500000F1080141604FF0FF31816000F10801B0
:100B6000C16001610021016070470021016170478F
:100B700042684A6093688B6093685960916008612D
:100B800003685B1C0360704710B502460B685C1C71
:100B90000CB9106907E002F1080000E04068446801
:100BA00024689C42FAD944684C604C68A160886013
:100BB00041600A611468641C146010BD01460A6932
:100BC000D1E901309860D1E901035860506888424A
:100BD00001D188685060002008611068401E1060D4
:100BE00010687047FFF714FB00BFFEE7001F4FF0CF
:100BF00080730360001F0160001F2E4B03601438D8
:100C00000260203870472C4800684FF47A71B0FBBE
:100C1000F1F0401E4FF0E021486107200861704765
:100C200010B52648006840F4700024490860084662
:100C3000006840F070400860FFF7E5FF00202049A1
:100C40000860FFF7B3FA002010BD70474FF08050E6
:100C50001A491C390860BFF34F8FBFF36F8F70477D
:100C600010B5FFF7D5FA16480068401C1449086013
:100C7000BFF34F8FBFF36F8F10BD10B510480068E2
:100C8000401E0F4908600846006810B90020FFF7B1
:100C9000C6FA10BD10B5FFF7BBFA00F004F920B199
:100CA0004FF0805005491C3908600020FFF7B7FA63
:100CB00010BD0000E50B00087000002020ED00E0F2
:100CC0003800002010B5002407E004EB8401FE4A40
:100CD00002EB8100FFF73CFF641C052CF5D3FB48B9
:100CE000FFF736FFFA48FFF733FFFA48FFF730FF08
:100CF000F648F9490860F648F849086010BD2DE942
:100D0000F04704460F4616469946DDF82080002538
:100D100007E0795D04F134004155785D00B902E0E7
:100D20006D1C0A2DF5D300BF00213D200155052E75
:100D300000D30426E662201DFFF717FF04F1180018
:100D4000FFF713FF2461C6F10500A0616462BDE8EE
:100D5000F0872DE9F04105460F461FB9A800FFF7BF
:100D60007AFE00E03846064656B14820FFF773FE8B
:100D700004460CB1266304E03046FFF7BFFE00E0F6
:100D8000002424B1A900A522206B00F0B5FD204667
:100D9000BDE8F0812DE9FF4F81B0804615469946A8
:100DA000DDE90E7A28461099FFF7D3FF0446002CA0
:100DB00052D0681E216B01EB800B2BF0070B0095C6
:100DC0003A462046119B0299FFF799FF4A46414651
:100DD0005846FFF70BFF2060BAF1000F01D0CAF8A8
:100DE0000040FFF73DFFBE480068401CBC4908605A
:100DF000BC48006840B9BB48046008460068012848
:100E00000CD1FFF75FFF09E0B748006830B9B5487B
:100E10000068C06AB84201D8B2480460B3480068AC
:100E2000401CB249086008460068206494F82C1001
:100E300001208840AE4909680843AD490860E16A6D
:100E400001EB8101A04A02EB8100211DFFF790FE1A
:100E50000126FFF712FF01E04FF0FF36012E09D106
:100E6000A148006830B19F480068C06AB84201D20A
:100E7000FFF7ECFE304605B0BDE8F08F96490968F3
:100E8000096809B9012100E0002121B14FF0FF31CB
:100E9000984A116006E090490968C968C868954A8F
:100EA0004168116070472DE9F041002792480068C1
:100EB000002865D191480068401C904908600846A8
:100EC00006688EB98448D0F800808448006882495A
:100ED00008608248C0F8008089480068401C884942
:100EE0000860FFF7CBFF00BF8248006886423BD313
:100EF00000BF79480068006808B9012000E00020C0
:100F000020B14FF0FF307B4908602CE07248006848
:100F1000C068C4686568AE4202D27648056022E0C7
:100F2000201DFFF74BFEA06A18B104F11800FFF76F
:100F300045FE94F82C10012088406D49096808434B
:100F40006B490860E16A01EB81015F4A02EB8100B5
:100F5000211DFFF70DFE6349E06A0968C96A8842EE
:100F6000C7D30127C5E700BF5E480068C06A00EB31
:100F70008000554951F82000012806D9012704E0D6
:100F800060480068401C5F4908605F48006800B125
:100F900001273846BDE8F08170B50025FFF760FEF7
:100FA00055480068401E54490860084600680028FB
:100FB0004BD14B480068002847D024E04548C06822
:100FC000C46804F11800FFF7F9FD201DFFF7F6FDD6
:100FD00094F82C1001208840454909680843444989
:100FE0000860E16A01EB8101374A02EB8100211DB3
:100FF000FFF7BEFD3B49E06A0968C96A884202D32F
:101000000120414908603348006808B9012000E028
:1010100000200028D2D03B48006878B10AE0FFF7F2
:1010200042FF10B101203849086036480068401E70
:1010300034490860334800680028F0D1324800681D
:10104000012802D10125FFF701FEFFF716FE284611
:1010500070BD10B504462348006844602748006806
:10106000844207D21F480168091D1C480068FFF729
:101070008BFD0CE01B480168091D17480068FFF74D
:1010800083FD1C480068844201D21A48046010BDE8
:1010900019480068401C1849086070472DE9F0475E
:1010A000044688464FF00009FFF7F2FF134807682F
:1010B000206800EB08052068B8422AD92068A842B9
:1010C0002ED9BD422CD921E084440020E8440020E0
:1010D000FC44002010450020400000204400002077
:1010E000480000203C000020540000206400002044
:1010F00050000020680000206C0000204C00002000
:1011000060000020580000205C0000204FF0010922
:1011100006E02068A84201D8BD4201D94FF001097C
:101120002560B9F1000F13D0FE480068001DFFF7DD
:1011300045FD50B9FB48006890F82C10012088400C
:10114000F94909688143F84801602846FFF781FFA3
:10115000FFF722FF06460EB9FFF778FDBDE8F087DE
:1011600070B504460026DCB1FFF792FFEF48006837
:101170000519EC480068001DFFF720FD50B9E9484B
:10118000006890F82C1001208840E74909688143E5
:10119000E54801602846FFF75CFFFFF7FDFE0646C5
:1011A0000EB9FFF753FD70BD70B50446FFF758FD4B
:1011B00014B9DC48006800E020460646F56AFFF7EF
:1011C0005CFD284670BD2DE9F0410446FFF720F88C
:1011D000064614B9D348006800E020460746FD6A79
:1011E0003046FFF71CF82846BDE8F0812DE9F047AE
:1011F00080460D464FF00009052D00D30425FFF76A
:101200002FFDB8F1000F02D1C648006800E040464B
:101210000446E66AAE424BD0B5420BD9C1480068DD
:1012200084420DD0BF480068C06AA84208D84FF079
:10123000010905E0BB480068844201D14FF0010973
:10124000E76AE562A06900F0004010B9C5F1050049
:10125000A06107EB8701B64A02EB81016069884211
:1012600001D1012000E00020E0B1201DFFF7A6FC25
:1012700030B90120B840AC4909688143AA480160EF
:1012800094F82C1001208840A74909680843A64912
:101290000860E16A01EB8101A54A02EB8100211D92
:1012A000FFF766FCB9F1010F01D1FFF7CFFC00BFDA
:1012B000FFF7E3FCBDE8F087704700BFFFF7FCFFD6
:1012C0009B4800680128F9D9FFF7C0FCF6E71FB575
:1012D00000200090019002900346822295A1039085
:1012E0009648FFF757FD0446012C0CD1FEF790FFFE
:1012F000A01E9349086001209249086000208B4994
:101300000860FFF78DFC1FBD10B5FEF781FF0020C0
:101310008C490860FFF799FC10BD84490868704744
:101320000021824A1068704787480068704702466B
:10133000002101E0521C491C1078A528FAD0890828
:1013400088B270472DE9F04706460C4690460025C6
:101350002068002841D0204641684968416000F17A
:10136000080142688A4202D1416849684160416887
:10137000D1F80C9000BF204641684968416000F1F7
:10138000080142688A4202D1416849684160416867
:10139000CF6806EB4510076007F1340006EB4511F6
:1013A0004860386C06EB4511886006EB451080F804
:1013B0000C80F86A06EB45110861002006EB451128
:1013C000486106EB45118861386BFFF7B0FF06EB0B
:1013D000451188836D1C4F45CDD12846BDE8F08767
:1013E0002DE9F04105468846164600240527FFF7FB
:1013F0004FFE55480068804521D300BF7F1E07EB94
:1014000087024B4B03EB820105EB44100122FFF7EF
:1014100099FF0444002FF1D105EB441002224B49FF
:101420000968FFF78FFF044405EB44100222484986
:101430000968FFF787FF04440EB100203060FFF712
:10144000ABFD2046BDE8F0814248006818B101209C
:10145000414908601DE000203F49086032480068AB
:10146000B0FA80F0C0F11F0101EB8102304B03EBB9
:10147000820042685268426000F108024368934269
:1014800002D14268526842604268D268254B1A60B5
:1014900000BF704770B506460C46224801681831F7
:1014A0003046FFF771FB1F480068001DFFF786FB01
:1014B00050B91C48006890F82C10012088401A4947
:1014C00009688143184801601848006805192846D2
:1014D000FFF7BFFD70BD2DE9F04107460C461546EC
:1014E00044F000400F49096888610E4801681831CE
:1014F0003846FFF73DFB0B480068001DFFF75EFB19
:1015000050B90848006890F82C100120884006491E
:101510000968814304480160044800684619304660
:101520001CE000003C000020500000204C00002087
:101530008444002049444C4500000000BB120008D0
:1015400068000020540000204800002040000020D7
:10155000440000206C0000205C000020FFF779FDB3
:10156000BDE8F08170B50646F068C46804F1180063
:10157000FFF724FB50480068A8B9201DFFF71EFBA9
:1015800094F82C10012088404C49096808434B49C5
:101590000860E16A01EB8101494A02EB8100211DEB
:1015A000FFF7E6FA04E004F118014648FFF7E0FA15
:1015B0004549E06A0968C96A884204D901250120C1
:1015C0004249086000E00025284670BD2DE9F04141
:1015D00005460F4647F000402860EC682846FFF7B4
:1015E000EDFA201DFFF7EAFA94F82C10012088404C
:1015F00032490968084331490860E16A01EB810119
:101600002F4A02EB8100211DFFF7B2FA2E49E06A52
:101610000968C96A884204D9012601202B4908605B
:1016200000E000263046BDE8F081294909680160E4
:10163000284909684160704770B504460D46FFF7B8
:101640000FFB24480268224920680968884204D0B8
:101650006068904201D801260FE06068101A29687E
:10166000884209D228686168511A401A28602046C9
:10167000FFF7DBFF002600E00126FFF7FEFA304609
:1016800070BD0120114908607047014611B10A463A
:10169000506C00E00020704708B10246516470476A
:1016A00009490968886908490968C96AC1F10501D9
:1016B000054A1268916170476C00002050000020BC
:1016C00084440020104500203C0000205C000020E5
:1016D000600000204C0000200CB50020019000901C
:1016E0006C48006840F480306A49086000BF69486F
:1016F000006800F4003000900198401C01900098B0
:1017000018B90198B0F5A06FF1D16248006800F4F3
:10171000003010B10120009001E0002000900098FE
:10172000012843D15C48006840F010005A49086025
:101730000846006820F0030008600846006840F092
:1017400002000860534840685249486008464068B3
:1017500048600846406840F4806048600846406839
:1017600020F47C1048600846406840F4E810486067
:101770000846006840F08070086000BF4548006877
:1017800000F000700028F9D04248406820F00300C3
:10179000404948600846406840F00200486000BF89
:1017A0003C48406800F00C000828F9D10CBD10B589
:1017B000FFF792FF10BD10B53648006840F00100F9
:1017C0003449086008464068344908403149486057
:1017D00008460068324908402E49086008460068FB
:1017E00020F4802008600846406820F4FE0048602D
:1017F0004FF41F008860FFF7DAFF4FF000602949BF
:10180000086010BD10B5002100200022214B5B684C
:1018100003F00C0121B1042906D0082928D107E0E2
:10182000214B224C236027E01F4B204C236023E0F8
:10183000184B5B6803F47010164B5B6803F480323E
:10184000022303EB904022B9194B4343174C23600A
:101850000DE0104B5B6803F4003323B1144B43439A
:10186000124C236003E0104B4343104C236003E011
:101870000D4B0E4C236000BF00BF064B5B68C3F3EB
:1018800003130C4CE15C094B1B68CB40074C2360F5
:1018900010BD000000100240002002400000FFF8D0
:1018A000FFFFF6FE08ED00E000127A007000002055
:1018B00000093D007400002009488047094800479E
:1018C000FEE7FEE7FEE7FEE7FEE7FEE7FEE7FEE7F0
:1018D000FEE7FEE704480549054A064B704700004D
:1018E000B7170008ED00000888450020884B00204D
:1018F000884700208847002002F0FF0343EA0322C4
:1019000042EA024200F005B87047704770474FF056
:1019100000020429C0F0128010F0030C00F01B80BC
:10192000CCF1040CBCF1020F18BF00F8012BA8BFCA
:1019300020F8022BA1EB0C0100F00DB85FEAC17C8E
:1019400024BF00F8012B00F8012B48BF00F8012B41
:1019500070474FF0000200B5134694469646203972
:1019600022BFA0E80C50A0E80C50B1F12001BFF458
:10197000F7AF090728BFA0E80C5048BF0CC05DF8BE
:1019800004EB890028BF40F8042B08BF704748BF0C
:1019900020F8022B11F0804F18BF00F8012B704780
:1019A000754600F02BF8AE4605006946534620F018
:1019B0000700854618B020B5FFF78CFFBDE8204032
:1019C0004FF000064FF000074FF000084FF0000BFB
:1019D00021F00701AC46ACE8C009ACE8C009ACE8AE
:1019E000C009ACE8C0098D46704710B50446AFF396
:1019F00000802046BDE81040FEF7BFBB004870479E
:101A00002445002001491820ABBEFEE72600020055
:101A100070470000341A0008000000208400000015
:101A200028010008B81A000884000020044B0000B8
:101A30004401000800000000010203040102030445
:101A40000607080902040608000000000000000064
:101A500077ECFFFF00000000000000000000000025
:101A600000000000F843000000000000AAAAAAAA93
:101A70000000000000000000000000000000000066
:101A80000000000000000000000000000000000056
:101A90000000000000000000000000000000000046
:101AA0000000000000A24A04000000000000000046
:081AB000010203040607080906
:04000005080000ED02
:00000001FF
